{
  "contracts/DappInterfaceMulticall.sol": {
    "DappInterfaceMulticall": {
      "abi": [
        {
          "inputs": [],
          "name": "getCurrentBlockTimestamp",
          "outputs": [
            {
              "internalType": "uint256",
              "name": "timestamp",
              "type": "uint256"
            }
          ],
          "stateMutability": "view",
          "type": "function"
        },
        {
          "inputs": [
            {
              "internalType": "address",
              "name": "addr",
              "type": "address"
            }
          ],
          "name": "getEthBalance",
          "outputs": [
            {
              "internalType": "uint256",
              "name": "balance",
              "type": "uint256"
            }
          ],
          "stateMutability": "view",
          "type": "function"
        },
        {
          "inputs": [
            {
              "components": [
                {
                  "internalType": "address",
                  "name": "target",
                  "type": "address"
                },
                {
                  "internalType": "uint256",
                  "name": "gasLimit",
                  "type": "uint256"
                },
                {
                  "internalType": "bytes",
                  "name": "callData",
                  "type": "bytes"
                }
              ],
              "internalType": "struct DappInterfaceMulticall.Call[]",
              "name": "calls",
              "type": "tuple[]"
            }
          ],
          "name": "multicall",
          "outputs": [
            {
              "internalType": "uint256",
              "name": "blockNumber",
              "type": "uint256"
            },
            {
              "components": [
                {
                  "internalType": "bool",
                  "name": "success",
                  "type": "bool"
                },
                {
                  "internalType": "uint256",
                  "name": "gasUsed",
                  "type": "uint256"
                },
                {
                  "internalType": "bytes",
                  "name": "returnData",
                  "type": "bytes"
                }
              ],
              "internalType": "struct DappInterfaceMulticall.Result[]",
              "name": "returnData",
              "type": "tuple[]"
            }
          ],
          "stateMutability": "nonpayable",
          "type": "function"
        }
      ],
      "evm": {
        "bytecode": {
          "linkReferences": {},
          "object": "608060405234801561001057600080fd5b50610728806100206000396000f3fe608060405234801561001057600080fd5b50600436106100415760003560e01c80630f28c97d146100465780631749e1e31461005e5780634d2301cc1461007f575b600080fd5b425b6040516100559190610254565b60405180910390f35b61007161006c3660046104e8565b61009a565b60405161005592919061064e565b61004861008d36600461066e565b6001600160a01b03163190565b8051439060609067ffffffffffffffff8111156100b9576100b9610268565b60405190808252806020026020018201604052801561010657816020015b604080516060808201835260008083526020830152918101919091528152602001906001900390816100d75790505b50905060005b835181101561024657600080600086848151811061012c5761012c61068f565b60200260200101516000015187858151811061014a5761014a61068f565b6020026020010151602001518886815181106101685761016861068f565b60200260200101516040015192509250925060005a9050600080856001600160a01b0316858560405161019b91906106c7565b60006040518083038160008787f1925050503d80600081146101d9576040519150601f19603f3d011682016040523d82523d6000602084013e6101de565b606091505b509150915060005a6101f090856106e9565b905060405180606001604052808415158152602001828152602001838152508989815181106102215761022161068f565b602002602001018190525050505050505050808061023e90610700565b91505061010c565b50915091565b805b82525050565b60208101610262828461024c565b92915050565b634e487b7160e01b600052604160045260246000fd5b601f19601f830116810181811067ffffffffffffffff821117156102a4576102a4610268565b6040525050565b60006102b660405190565b90506102c2828261027e565b919050565b600067ffffffffffffffff8211156102e1576102e1610268565b5060209081020190565b60006001600160a01b038216610262565b610305816102eb565b811461031057600080fd5b50565b8035610262816102fc565b80610305565b80356102628161031e565b600067ffffffffffffffff82111561034957610349610268565b601f19601f83011660200192915050565b82818337506000910152565b60006103796103748461032f565b6102ab565b90508281526020810184848401111561039457610394600080fd5b61039f84828561035a565b509392505050565b600082601f8301126103bb576103bb600080fd5b81356103cb848260208601610366565b949350505050565b6000606082840312156103e8576103e8600080fd5b6103f260606102ab565b905060006104008484610313565b825250602061041184848301610324565b602083015250604082013567ffffffffffffffff81111561043457610434600080fd5b610440848285016103a7565b60408301525092915050565b600061045a610374846102c7565b8381529050602080820190840283018581111561047957610479600080fd5b835b818110156104ba57803567ffffffffffffffff81111561049d5761049d600080fd5b8086016104aa89826103d3565b855250506020928301920161047b565b5050509392505050565b600082601f8301126104d8576104d8600080fd5b81356103cb84826020860161044c565b6000602082840312156104fd576104fd600080fd5b813567ffffffffffffffff81111561051757610517600080fd5b6103cb848285016104c4565b80151561024e565b60005b8381101561054657818101518382015260200161052e565b83811115610555576000848401525b50505050565b6000610565825190565b80845260208401935061057c81856020860161052b565b601f01601f19169290920192915050565b805160009060608401906105a18582610523565b5060208301516105b4602086018261024c565b50604083015184820360408601526105cc828261055b565b95945050505050565b60006105e1838361058d565b9392505050565b60006105f2825190565b8084526020840193508360208202850161060c8560200190565b8060005b85811015610641578484038952815161062985826105d5565b94506020830160209a909a0199925050600101610610565b5091979650505050505050565b6040810161065c828561024c565b81810360208301526103cb81846105e8565b60006020828403121561068357610683600080fd5b60006103cb8484610313565b634e487b7160e01b600052603260045260246000fd5b60006106af825190565b6106bd81856020860161052b565b9290920192915050565b60006105e182846106a5565b634e487b7160e01b600052601160045260246000fd5b6000828210156106fb576106fb6106d3565b500390565b6000600019821415610714576107146106d3565b506001019056fea164736f6c634300080a000a",
          "opcodes": "PUSH1 0x80 PUSH1 0x40 MSTORE CALLVALUE DUP1 ISZERO PUSH2 0x10 JUMPI PUSH1 0x0 DUP1 REVERT JUMPDEST POP PUSH2 0x728 DUP1 PUSH2 0x20 PUSH1 0x0 CODECOPY PUSH1 0x0 RETURN INVALID PUSH1 0x80 PUSH1 0x40 MSTORE CALLVALUE DUP1 ISZERO PUSH2 0x10 JUMPI PUSH1 0x0 DUP1 REVERT JUMPDEST POP PUSH1 0x4 CALLDATASIZE LT PUSH2 0x41 JUMPI PUSH1 0x0 CALLDATALOAD PUSH1 0xE0 SHR DUP1 PUSH4 0xF28C97D EQ PUSH2 0x46 JUMPI DUP1 PUSH4 0x1749E1E3 EQ PUSH2 0x5E JUMPI DUP1 PUSH4 0x4D2301CC EQ PUSH2 0x7F JUMPI JUMPDEST PUSH1 0x0 DUP1 REVERT JUMPDEST TIMESTAMP JUMPDEST PUSH1 0x40 MLOAD PUSH2 0x55 SWAP2 SWAP1 PUSH2 0x254 JUMP JUMPDEST PUSH1 0x40 MLOAD DUP1 SWAP2 SUB SWAP1 RETURN JUMPDEST PUSH2 0x71 PUSH2 0x6C CALLDATASIZE PUSH1 0x4 PUSH2 0x4E8 JUMP JUMPDEST PUSH2 0x9A JUMP JUMPDEST PUSH1 0x40 MLOAD PUSH2 0x55 SWAP3 SWAP2 SWAP1 PUSH2 0x64E JUMP JUMPDEST PUSH2 0x48 PUSH2 0x8D CALLDATASIZE PUSH1 0x4 PUSH2 0x66E JUMP JUMPDEST PUSH1 0x1 PUSH1 0x1 PUSH1 0xA0 SHL SUB AND BALANCE SWAP1 JUMP JUMPDEST DUP1 MLOAD NUMBER SWAP1 PUSH1 0x60 SWAP1 PUSH8 0xFFFFFFFFFFFFFFFF DUP2 GT ISZERO PUSH2 0xB9 JUMPI PUSH2 0xB9 PUSH2 0x268 JUMP JUMPDEST PUSH1 0x40 MLOAD SWAP1 DUP1 DUP3 MSTORE DUP1 PUSH1 0x20 MUL PUSH1 0x20 ADD DUP3 ADD PUSH1 0x40 MSTORE DUP1 ISZERO PUSH2 0x106 JUMPI DUP2 PUSH1 0x20 ADD JUMPDEST PUSH1 0x40 DUP1 MLOAD PUSH1 0x60 DUP1 DUP3 ADD DUP4 MSTORE PUSH1 0x0 DUP1 DUP4 MSTORE PUSH1 0x20 DUP4 ADD MSTORE SWAP2 DUP2 ADD SWAP2 SWAP1 SWAP2 MSTORE DUP2 MSTORE PUSH1 0x20 ADD SWAP1 PUSH1 0x1 SWAP1 SUB SWAP1 DUP2 PUSH2 0xD7 JUMPI SWAP1 POP JUMPDEST POP SWAP1 POP PUSH1 0x0 JUMPDEST DUP4 MLOAD DUP2 LT ISZERO PUSH2 0x246 JUMPI PUSH1 0x0 DUP1 PUSH1 0x0 DUP7 DUP5 DUP2 MLOAD DUP2 LT PUSH2 0x12C JUMPI PUSH2 0x12C PUSH2 0x68F JUMP JUMPDEST PUSH1 0x20 MUL PUSH1 0x20 ADD ADD MLOAD PUSH1 0x0 ADD MLOAD DUP8 DUP6 DUP2 MLOAD DUP2 LT PUSH2 0x14A JUMPI PUSH2 0x14A PUSH2 0x68F JUMP JUMPDEST PUSH1 0x20 MUL PUSH1 0x20 ADD ADD MLOAD PUSH1 0x20 ADD MLOAD DUP9 DUP7 DUP2 MLOAD DUP2 LT PUSH2 0x168 JUMPI PUSH2 0x168 PUSH2 0x68F JUMP JUMPDEST PUSH1 0x20 MUL PUSH1 0x20 ADD ADD MLOAD PUSH1 0x40 ADD MLOAD SWAP3 POP SWAP3 POP SWAP3 POP PUSH1 0x0 GAS SWAP1 POP PUSH1 0x0 DUP1 DUP6 PUSH1 0x1 PUSH1 0x1 PUSH1 0xA0 SHL SUB AND DUP6 DUP6 PUSH1 0x40 MLOAD PUSH2 0x19B SWAP2 SWAP1 PUSH2 0x6C7 JUMP JUMPDEST PUSH1 0x0 PUSH1 0x40 MLOAD DUP1 DUP4 SUB DUP2 PUSH1 0x0 DUP8 DUP8 CALL SWAP3 POP POP POP RETURNDATASIZE DUP1 PUSH1 0x0 DUP2 EQ PUSH2 0x1D9 JUMPI PUSH1 0x40 MLOAD SWAP2 POP PUSH1 0x1F NOT PUSH1 0x3F RETURNDATASIZE ADD AND DUP3 ADD PUSH1 0x40 MSTORE RETURNDATASIZE DUP3 MSTORE RETURNDATASIZE PUSH1 0x0 PUSH1 0x20 DUP5 ADD RETURNDATACOPY PUSH2 0x1DE JUMP JUMPDEST PUSH1 0x60 SWAP2 POP JUMPDEST POP SWAP2 POP SWAP2 POP PUSH1 0x0 GAS PUSH2 0x1F0 SWAP1 DUP6 PUSH2 0x6E9 JUMP JUMPDEST SWAP1 POP PUSH1 0x40 MLOAD DUP1 PUSH1 0x60 ADD PUSH1 0x40 MSTORE DUP1 DUP5 ISZERO ISZERO DUP2 MSTORE PUSH1 0x20 ADD DUP3 DUP2 MSTORE PUSH1 0x20 ADD DUP4 DUP2 MSTORE POP DUP10 DUP10 DUP2 MLOAD DUP2 LT PUSH2 0x221 JUMPI PUSH2 0x221 PUSH2 0x68F JUMP JUMPDEST PUSH1 0x20 MUL PUSH1 0x20 ADD ADD DUP2 SWAP1 MSTORE POP POP POP POP POP POP POP POP DUP1 DUP1 PUSH2 0x23E SWAP1 PUSH2 0x700 JUMP JUMPDEST SWAP2 POP POP PUSH2 0x10C JUMP JUMPDEST POP SWAP2 POP SWAP2 JUMP JUMPDEST DUP1 JUMPDEST DUP3 MSTORE POP POP JUMP JUMPDEST PUSH1 0x20 DUP2 ADD PUSH2 0x262 DUP3 DUP5 PUSH2 0x24C JUMP JUMPDEST SWAP3 SWAP2 POP POP JUMP JUMPDEST PUSH4 0x4E487B71 PUSH1 0xE0 SHL PUSH1 0x0 MSTORE PUSH1 0x41 PUSH1 0x4 MSTORE PUSH1 0x24 PUSH1 0x0 REVERT JUMPDEST PUSH1 0x1F NOT PUSH1 0x1F DUP4 ADD AND DUP2 ADD DUP2 DUP2 LT PUSH8 0xFFFFFFFFFFFFFFFF DUP3 GT OR ISZERO PUSH2 0x2A4 JUMPI PUSH2 0x2A4 PUSH2 0x268 JUMP JUMPDEST PUSH1 0x40 MSTORE POP POP JUMP JUMPDEST PUSH1 0x0 PUSH2 0x2B6 PUSH1 0x40 MLOAD SWAP1 JUMP JUMPDEST SWAP1 POP PUSH2 0x2C2 DUP3 DUP3 PUSH2 0x27E JUMP JUMPDEST SWAP2 SWAP1 POP JUMP JUMPDEST PUSH1 0x0 PUSH8 0xFFFFFFFFFFFFFFFF DUP3 GT ISZERO PUSH2 0x2E1 JUMPI PUSH2 0x2E1 PUSH2 0x268 JUMP JUMPDEST POP PUSH1 0x20 SWAP1 DUP2 MUL ADD SWAP1 JUMP JUMPDEST PUSH1 0x0 PUSH1 0x1 PUSH1 0x1 PUSH1 0xA0 SHL SUB DUP3 AND PUSH2 0x262 JUMP JUMPDEST PUSH2 0x305 DUP2 PUSH2 0x2EB JUMP JUMPDEST DUP2 EQ PUSH2 0x310 JUMPI PUSH1 0x0 DUP1 REVERT JUMPDEST POP JUMP JUMPDEST DUP1 CALLDATALOAD PUSH2 0x262 DUP2 PUSH2 0x2FC JUMP JUMPDEST DUP1 PUSH2 0x305 JUMP JUMPDEST DUP1 CALLDATALOAD PUSH2 0x262 DUP2 PUSH2 0x31E JUMP JUMPDEST PUSH1 0x0 PUSH8 0xFFFFFFFFFFFFFFFF DUP3 GT ISZERO PUSH2 0x349 JUMPI PUSH2 0x349 PUSH2 0x268 JUMP JUMPDEST PUSH1 0x1F NOT PUSH1 0x1F DUP4 ADD AND PUSH1 0x20 ADD SWAP3 SWAP2 POP POP JUMP JUMPDEST DUP3 DUP2 DUP4 CALLDATACOPY POP PUSH1 0x0 SWAP2 ADD MSTORE JUMP JUMPDEST PUSH1 0x0 PUSH2 0x379 PUSH2 0x374 DUP5 PUSH2 0x32F JUMP JUMPDEST PUSH2 0x2AB JUMP JUMPDEST SWAP1 POP DUP3 DUP2 MSTORE PUSH1 0x20 DUP2 ADD DUP5 DUP5 DUP5 ADD GT ISZERO PUSH2 0x394 JUMPI PUSH2 0x394 PUSH1 0x0 DUP1 REVERT JUMPDEST PUSH2 0x39F DUP5 DUP3 DUP6 PUSH2 0x35A JUMP JUMPDEST POP SWAP4 SWAP3 POP POP POP JUMP JUMPDEST PUSH1 0x0 DUP3 PUSH1 0x1F DUP4 ADD SLT PUSH2 0x3BB JUMPI PUSH2 0x3BB PUSH1 0x0 DUP1 REVERT JUMPDEST DUP2 CALLDATALOAD PUSH2 0x3CB DUP5 DUP3 PUSH1 0x20 DUP7 ADD PUSH2 0x366 JUMP JUMPDEST SWAP5 SWAP4 POP POP POP POP JUMP JUMPDEST PUSH1 0x0 PUSH1 0x60 DUP3 DUP5 SUB SLT ISZERO PUSH2 0x3E8 JUMPI PUSH2 0x3E8 PUSH1 0x0 DUP1 REVERT JUMPDEST PUSH2 0x3F2 PUSH1 0x60 PUSH2 0x2AB JUMP JUMPDEST SWAP1 POP PUSH1 0x0 PUSH2 0x400 DUP5 DUP5 PUSH2 0x313 JUMP JUMPDEST DUP3 MSTORE POP PUSH1 0x20 PUSH2 0x411 DUP5 DUP5 DUP4 ADD PUSH2 0x324 JUMP JUMPDEST PUSH1 0x20 DUP4 ADD MSTORE POP PUSH1 0x40 DUP3 ADD CALLDATALOAD PUSH8 0xFFFFFFFFFFFFFFFF DUP2 GT ISZERO PUSH2 0x434 JUMPI PUSH2 0x434 PUSH1 0x0 DUP1 REVERT JUMPDEST PUSH2 0x440 DUP5 DUP3 DUP6 ADD PUSH2 0x3A7 JUMP JUMPDEST PUSH1 0x40 DUP4 ADD MSTORE POP SWAP3 SWAP2 POP POP JUMP JUMPDEST PUSH1 0x0 PUSH2 0x45A PUSH2 0x374 DUP5 PUSH2 0x2C7 JUMP JUMPDEST DUP4 DUP2 MSTORE SWAP1 POP PUSH1 0x20 DUP1 DUP3 ADD SWAP1 DUP5 MUL DUP4 ADD DUP6 DUP2 GT ISZERO PUSH2 0x479 JUMPI PUSH2 0x479 PUSH1 0x0 DUP1 REVERT JUMPDEST DUP4 JUMPDEST DUP2 DUP2 LT ISZERO PUSH2 0x4BA JUMPI DUP1 CALLDATALOAD PUSH8 0xFFFFFFFFFFFFFFFF DUP2 GT ISZERO PUSH2 0x49D JUMPI PUSH2 0x49D PUSH1 0x0 DUP1 REVERT JUMPDEST DUP1 DUP7 ADD PUSH2 0x4AA DUP10 DUP3 PUSH2 0x3D3 JUMP JUMPDEST DUP6 MSTORE POP POP PUSH1 0x20 SWAP3 DUP4 ADD SWAP3 ADD PUSH2 0x47B JUMP JUMPDEST POP POP POP SWAP4 SWAP3 POP POP POP JUMP JUMPDEST PUSH1 0x0 DUP3 PUSH1 0x1F DUP4 ADD SLT PUSH2 0x4D8 JUMPI PUSH2 0x4D8 PUSH1 0x0 DUP1 REVERT JUMPDEST DUP2 CALLDATALOAD PUSH2 0x3CB DUP5 DUP3 PUSH1 0x20 DUP7 ADD PUSH2 0x44C JUMP JUMPDEST PUSH1 0x0 PUSH1 0x20 DUP3 DUP5 SUB SLT ISZERO PUSH2 0x4FD JUMPI PUSH2 0x4FD PUSH1 0x0 DUP1 REVERT JUMPDEST DUP2 CALLDATALOAD PUSH8 0xFFFFFFFFFFFFFFFF DUP2 GT ISZERO PUSH2 0x517 JUMPI PUSH2 0x517 PUSH1 0x0 DUP1 REVERT JUMPDEST PUSH2 0x3CB DUP5 DUP3 DUP6 ADD PUSH2 0x4C4 JUMP JUMPDEST DUP1 ISZERO ISZERO PUSH2 0x24E JUMP JUMPDEST PUSH1 0x0 JUMPDEST DUP4 DUP2 LT ISZERO PUSH2 0x546 JUMPI DUP2 DUP2 ADD MLOAD DUP4 DUP3 ADD MSTORE PUSH1 0x20 ADD PUSH2 0x52E JUMP JUMPDEST DUP4 DUP2 GT ISZERO PUSH2 0x555 JUMPI PUSH1 0x0 DUP5 DUP5 ADD MSTORE JUMPDEST POP POP POP POP JUMP JUMPDEST PUSH1 0x0 PUSH2 0x565 DUP3 MLOAD SWAP1 JUMP JUMPDEST DUP1 DUP5 MSTORE PUSH1 0x20 DUP5 ADD SWAP4 POP PUSH2 0x57C DUP2 DUP6 PUSH1 0x20 DUP7 ADD PUSH2 0x52B JUMP JUMPDEST PUSH1 0x1F ADD PUSH1 0x1F NOT AND SWAP3 SWAP1 SWAP3 ADD SWAP3 SWAP2 POP POP JUMP JUMPDEST DUP1 MLOAD PUSH1 0x0 SWAP1 PUSH1 0x60 DUP5 ADD SWAP1 PUSH2 0x5A1 DUP6 DUP3 PUSH2 0x523 JUMP JUMPDEST POP PUSH1 0x20 DUP4 ADD MLOAD PUSH2 0x5B4 PUSH1 0x20 DUP7 ADD DUP3 PUSH2 0x24C JUMP JUMPDEST POP PUSH1 0x40 DUP4 ADD MLOAD DUP5 DUP3 SUB PUSH1 0x40 DUP7 ADD MSTORE PUSH2 0x5CC DUP3 DUP3 PUSH2 0x55B JUMP JUMPDEST SWAP6 SWAP5 POP POP POP POP POP JUMP JUMPDEST PUSH1 0x0 PUSH2 0x5E1 DUP4 DUP4 PUSH2 0x58D JUMP JUMPDEST SWAP4 SWAP3 POP POP POP JUMP JUMPDEST PUSH1 0x0 PUSH2 0x5F2 DUP3 MLOAD SWAP1 JUMP JUMPDEST DUP1 DUP5 MSTORE PUSH1 0x20 DUP5 ADD SWAP4 POP DUP4 PUSH1 0x20 DUP3 MUL DUP6 ADD PUSH2 0x60C DUP6 PUSH1 0x20 ADD SWAP1 JUMP JUMPDEST DUP1 PUSH1 0x0 JUMPDEST DUP6 DUP2 LT ISZERO PUSH2 0x641 JUMPI DUP5 DUP5 SUB DUP10 MSTORE DUP2 MLOAD PUSH2 0x629 DUP6 DUP3 PUSH2 0x5D5 JUMP JUMPDEST SWAP5 POP PUSH1 0x20 DUP4 ADD PUSH1 0x20 SWAP11 SWAP1 SWAP11 ADD SWAP10 SWAP3 POP POP PUSH1 0x1 ADD PUSH2 0x610 JUMP JUMPDEST POP SWAP2 SWAP8 SWAP7 POP POP POP POP POP POP POP JUMP JUMPDEST PUSH1 0x40 DUP2 ADD PUSH2 0x65C DUP3 DUP6 PUSH2 0x24C JUMP JUMPDEST DUP2 DUP2 SUB PUSH1 0x20 DUP4 ADD MSTORE PUSH2 0x3CB DUP2 DUP5 PUSH2 0x5E8 JUMP JUMPDEST PUSH1 0x0 PUSH1 0x20 DUP3 DUP5 SUB SLT ISZERO PUSH2 0x683 JUMPI PUSH2 0x683 PUSH1 0x0 DUP1 REVERT JUMPDEST PUSH1 0x0 PUSH2 0x3CB DUP5 DUP5 PUSH2 0x313 JUMP JUMPDEST PUSH4 0x4E487B71 PUSH1 0xE0 SHL PUSH1 0x0 MSTORE PUSH1 0x32 PUSH1 0x4 MSTORE PUSH1 0x24 PUSH1 0x0 REVERT JUMPDEST PUSH1 0x0 PUSH2 0x6AF DUP3 MLOAD SWAP1 JUMP JUMPDEST PUSH2 0x6BD DUP2 DUP6 PUSH1 0x20 DUP7 ADD PUSH2 0x52B JUMP JUMPDEST SWAP3 SWAP1 SWAP3 ADD SWAP3 SWAP2 POP POP JUMP JUMPDEST PUSH1 0x0 PUSH2 0x5E1 DUP3 DUP5 PUSH2 0x6A5 JUMP JUMPDEST PUSH4 0x4E487B71 PUSH1 0xE0 SHL PUSH1 0x0 MSTORE PUSH1 0x11 PUSH1 0x4 MSTORE PUSH1 0x24 PUSH1 0x0 REVERT JUMPDEST PUSH1 0x0 DUP3 DUP3 LT ISZERO PUSH2 0x6FB JUMPI PUSH2 0x6FB PUSH2 0x6D3 JUMP JUMPDEST POP SUB SWAP1 JUMP JUMPDEST PUSH1 0x0 PUSH1 0x0 NOT DUP3 EQ ISZERO PUSH2 0x714 JUMPI PUSH2 0x714 PUSH2 0x6D3 JUMP JUMPDEST POP PUSH1 0x1 ADD SWAP1 JUMP INVALID LOG1 PUSH5 0x736F6C6343 STOP ADDMOD EXP STOP EXP "
        },
        "methodIdentifiers": {
          "getCurrentBlockTimestamp()": "0f28c97d",
          "getEthBalance(address)": "4d2301cc",
          "multicall((address,uint256,bytes)[])": "1749e1e3"
        }
      }
    }
  }
}